{"abi":[{"type":"function","name":"ZERO_DELTA","inputs":[],"outputs":[{"name":"","type":"int256","internalType":"BalanceDelta"}],"stateMutability":"view"}],"bytecode":{"object":"0x60db61004c600b8282823980515f1a6073146040577f4e487b71000000000000000000000000000000000000000000000000000000005f525f60045260245ffd5b305f52607381538281f3fe73000000000000000000000000000000000000000030146080604052600436106032575f3560e01c806391cb4669146036575b5f80fd5b603c6050565b60405160479190608e565b60405180910390f35b5f81565b5f819050919050565b5f819050919050565b5f607a60766072846054565b605d565b6054565b9050919050565b6088816066565b82525050565b5f602082019050609f5f8301846081565b9291505056fea2646970667358221220e470e9716cd4e1d0784ecc711e08e814ec33c633d49bb785bc91c85f0245c47c64736f6c634300081a0033","linkReferences":{}},"methodIdentifiers":{"ZERO_DELTA()":"91cb4669"},"id":18}