{"abi":[{"type":"constructor","inputs":[{"name":"_core","type":"address","internalType":"address"},{"name":"_v4Module","type":"address","internalType":"address"},{"name":"_twammModule","type":"address","internalType":"address"},{"name":"_posm","type":"address","internalType":"address"}],"stateMutability":"nonpayable"},{"type":"function","name":"CORE","inputs":[],"outputs":[{"name":"","type":"address","internalType":"address"}],"stateMutability":"view"},{"type":"function","name":"POSM","inputs":[],"outputs":[{"name":"","type":"address","internalType":"address"}],"stateMutability":"view"},{"type":"function","name":"TWAMM_MODULE","inputs":[],"outputs":[{"name":"","type":"address","internalType":"address"}],"stateMutability":"view"},{"type":"function","name":"V4_MODULE","inputs":[],"outputs":[{"name":"","type":"address","internalType":"address"}],"stateMutability":"view"},{"type":"function","name":"activeTokenId","inputs":[],"outputs":[{"name":"","type":"uint256","internalType":"uint256"}],"stateMutability":"view"},{"type":"function","name":"activeTwammOrder","inputs":[],"outputs":[{"name":"key","type":"tuple","internalType":"struct PoolKey","components":[{"name":"currency0","type":"address","internalType":"Currency"},{"name":"currency1","type":"address","internalType":"Currency"},{"name":"fee","type":"uint24","internalType":"uint24"},{"name":"tickSpacing","type":"int24","internalType":"int24"},{"name":"hooks","type":"address","internalType":"contract IHooks"}]},{"name":"orderKey","type":"tuple","internalType":"struct ITWAMM.OrderKey","components":[{"name":"owner","type":"address","internalType":"address"},{"name":"expiration","type":"uint160","internalType":"uint160"},{"name":"zeroForOne","type":"bool","internalType":"bool"}]},{"name":"orderId","type":"bytes32","internalType":"bytes32"}],"stateMutability":"view"},{"type":"function","name":"clearActiveTwammOrder","inputs":[],"outputs":[],"stateMutability":"nonpayable"},{"type":"function","name":"clearActiveV4Position","inputs":[],"outputs":[],"stateMutability":"nonpayable"},{"type":"function","name":"collateralToken","inputs":[],"outputs":[{"name":"","type":"address","internalType":"address"}],"stateMutability":"view"},{"type":"function","name":"execute","inputs":[{"name":"target","type":"address","internalType":"address"},{"name":"data","type":"bytes","internalType":"bytes"}],"outputs":[],"stateMutability":"nonpayable"},{"type":"function","name":"executeWithApproval","inputs":[{"name":"target","type":"address","internalType":"address"},{"name":"data","type":"bytes","internalType":"bytes"},{"name":"approvalToken","type":"address","internalType":"address"},{"name":"approvalAmount","type":"uint256","internalType":"uint256"}],"outputs":[],"stateMutability":"nonpayable"},{"type":"function","name":"factory","inputs":[],"outputs":[{"name":"","type":"address","internalType":"address"}],"stateMutability":"view"},{"type":"function","name":"getNetAccountValue","inputs":[],"outputs":[{"name":"totalValue","type":"uint256","internalType":"uint256"}],"stateMutability":"view"},{"type":"function","name":"initialize","inputs":[{"name":"_marketId","type":"bytes32","internalType":"MarketId"},{"name":"_factory","type":"address","internalType":"address"}],"outputs":[],"stateMutability":"nonpayable"},{"type":"function","name":"lockAcquired","inputs":[{"name":"data","type":"bytes","internalType":"bytes"}],"outputs":[{"name":"","type":"bytes","internalType":"bytes"}],"stateMutability":"nonpayable"},{"type":"function","name":"marketId","inputs":[],"outputs":[{"name":"","type":"bytes32","internalType":"MarketId"}],"stateMutability":"view"},{"type":"function","name":"modifyPosition","inputs":[{"name":"rawMarketId","type":"bytes32","internalType":"bytes32"},{"name":"deltaCollateral","type":"int256","internalType":"int256"},{"name":"deltaDebt","type":"int256","internalType":"int256"}],"outputs":[],"stateMutability":"nonpayable"},{"type":"function","name":"multicall","inputs":[{"name":"data","type":"bytes[]","internalType":"bytes[]"}],"outputs":[{"name":"results","type":"bytes[]","internalType":"bytes[]"}],"stateMutability":"nonpayable"},{"type":"function","name":"operators","inputs":[{"name":"","type":"address","internalType":"address"}],"outputs":[{"name":"","type":"bool","internalType":"bool"}],"stateMutability":"view"},{"type":"function","name":"positionToken","inputs":[],"outputs":[{"name":"","type":"address","internalType":"address"}],"stateMutability":"view"},{"type":"function","name":"rateOracle","inputs":[],"outputs":[{"name":"","type":"address","internalType":"address"}],"stateMutability":"view"},{"type":"function","name":"seize","inputs":[{"name":"value","type":"uint256","internalType":"uint256"},{"name":"recipient","type":"address","internalType":"address"}],"outputs":[{"name":"output","type":"tuple","internalType":"struct IPrimeBroker.SeizeOutput","components":[{"name":"collateralSeized","type":"uint256","internalType":"uint256"},{"name":"wRLPExtracted","type":"uint256","internalType":"uint256"}]}],"stateMutability":"nonpayable"},{"type":"function","name":"setActiveTwammOrder","inputs":[{"name":"info","type":"tuple","internalType":"struct IPrimeBroker.TwammOrderInfo","components":[{"name":"key","type":"tuple","internalType":"struct PoolKey","components":[{"name":"currency0","type":"address","internalType":"Currency"},{"name":"currency1","type":"address","internalType":"Currency"},{"name":"fee","type":"uint24","internalType":"uint24"},{"name":"tickSpacing","type":"int24","internalType":"int24"},{"name":"hooks","type":"address","internalType":"contract IHooks"}]},{"name":"orderKey","type":"tuple","internalType":"struct ITWAMM.OrderKey","components":[{"name":"owner","type":"address","internalType":"address"},{"name":"expiration","type":"uint160","internalType":"uint160"},{"name":"zeroForOne","type":"bool","internalType":"bool"}]},{"name":"orderId","type":"bytes32","internalType":"bytes32"}]}],"outputs":[],"stateMutability":"nonpayable"},{"type":"function","name":"setActiveV4Position","inputs":[{"name":"newTokenId","type":"uint256","internalType":"uint256"}],"outputs":[],"stateMutability":"nonpayable"},{"type":"function","name":"setOperator","inputs":[{"name":"operator","type":"address","internalType":"address"},{"name":"active","type":"bool","internalType":"bool"}],"outputs":[],"stateMutability":"nonpayable"},{"type":"function","name":"underlyingPool","inputs":[],"outputs":[{"name":"","type":"address","internalType":"address"}],"stateMutability":"view"},{"type":"function","name":"underlyingToken","inputs":[],"outputs":[{"name":"","type":"address","internalType":"address"}],"stateMutability":"view"},{"type":"event","name":"Execute","inputs":[{"name":"target","type":"address","indexed":true,"internalType":"address"},{"name":"data","type":"bytes","indexed":false,"internalType":"bytes"}],"anonymous":false},{"type":"event","name":"OperatorUpdated","inputs":[{"name":"operator","type":"address","indexed":true,"internalType":"address"},{"name":"active","type":"bool","indexed":false,"internalType":"bool"}],"anonymous":false}],"bytecode":{"object":"0x610100604052348015610010575f80fd5b506040516168a53803806168a583398181016040528101906100329190610183565b8373ffffffffffffffffffffffffffffffffffffffff1660808173ffffffffffffffffffffffffffffffffffffffff16815250508273ffffffffffffffffffffffffffffffffffffffff1660a08173ffffffffffffffffffffffffffffffffffffffff16815250508173ffffffffffffffffffffffffffffffffffffffff1660c08173ffffffffffffffffffffffffffffffffffffffff16815250508073ffffffffffffffffffffffffffffffffffffffff1660e08173ffffffffffffffffffffffffffffffffffffffff16815250506001600f5f6101000a81548160ff021916908315150217905550505050506101e7565b5f80fd5b5f73ffffffffffffffffffffffffffffffffffffffff82169050919050565b5f61015282610129565b9050919050565b61016281610148565b811461016c575f80fd5b50565b5f8151905061017d81610159565b92915050565b5f805f806080858703121561019b5761019a610125565b5b5f6101a88782880161016f565b94505060206101b98782880161016f565b93505060406101ca8782880161016f565b92505060606101db8782880161016f565b91505092959194509250565b60805160a05160c05160e0516165f86102ad5f395f8181610e37015281816130410152818161310501528181613ab901528181613c7d0152613d6401525f8181611b11015261222401525f8181610c85015281816122e20152613a1001525f81816106e701528181610ba301528181610f2d015281816111ae0152818161157f015281816118d901528181611ae701528181612395015281816124400152818161252a015281816125f901528181612bfa01528181612f6301526133de01526165f85ff3fe608060405234801561000f575f80fd5b50600436106101a7575f3560e01c80636ed71ede116100f7578063ac9650d811610095578063c45a01551161006f578063c45a015514610487578063ca05975e146104a5578063f79b4ae9146104c1578063fbe8cc42146104cb576101a7565b8063ac9650d81461041b578063b2016bd41461044b578063bd58d04214610469576101a7565b806398f4b1b2116100d157806398f4b1b21461037f5780639cf436ee1461039d578063a7dab972146103bb578063ab6291fe146103eb576101a7565b80636ed71ede14610323578063783b3e38146103415780639352290e1461035f576101a7565b806325cea0a4116101645780635037b7e91161013e5780635037b7e9146102af578063558a7297146102cd5780636910e334146102e95780636b6c077414610305576101a7565b806325cea0a41461026b57806335a1af6d14610289578063433fbad014610293576101a7565b806313e7c9d8146101ab5780631b89f3d4146101db5780631cff79cd146101f75780631d56dc6c146102135780631fbaa88f146102315780632495a5991461024d575b5f80fd5b6101c560048036038101906101c09190613ff4565b6104e9565b6040516101d29190614039565b60405180910390f35b6101f560048036038101906101f091906140b8565b610506565b005b610211600480360381019061020c9190614169565b61078a565b005b61021b610c83565b60405161022891906141d5565b60405180910390f35b61024b60048036038101906102469190614221565b610ca7565b005b61025561100a565b60405161026291906141d5565b60405180910390f35b61027361102f565b604051610280919061425b565b60405180910390f35b610291611035565b005b6102ad60048036038101906102a89190614297565b61128a565b005b6102b761165c565b6040516102c491906141d5565b60405180910390f35b6102e760048036038101906102e291906142ed565b611681565b005b61030360048036038101906102fe9190614355565b611841565b005b61030d611ae5565b60405161031a91906141d5565b60405180910390f35b61032b611b09565b60405161033891906143b3565b60405180910390f35b610349611b0f565b60405161035691906141d5565b60405180910390f35b610367611b33565b60405161037693929190614561565b60405180910390f35b610387611d60565b60405161039491906141d5565b60405180910390f35b6103a5611d85565b6040516103b2919061425b565b60405180910390f35b6103d560048036038101906103d09190614598565b61238b565b6040516103e29190614612565b60405180910390f35b6104056004803603810190610400919061462b565b61243c565b60405161041291906146e6565b60405180910390f35b6104356004803603810190610430919061475b565b612692565b60405161044291906148a9565b60405180910390f35b6104536127f7565b60405161046091906141d5565b60405180910390f35b61047161281c565b60405161047e91906141d5565b60405180910390f35b61048f612841565b60405161049c91906141d5565b60405180910390f35b6104bf60048036038101906104ba91906148c9565b612864565b005b6104c9612cdc565b005b6104d361303f565b6040516104e091906141d5565b60405180910390f35b600e602052805f5260405f205f915054906101000a900460ff1681565b5f805f9054906101000a900473ffffffffffffffffffffffffffffffffffffffff1673ffffffffffffffffffffffffffffffffffffffff16636352211e3073ffffffffffffffffffffffffffffffffffffffff166040518263ffffffff1660e01b8152600401610576919061425b565b602060405180830381865afa158015610591573d5f803e3d5ffd5b505050506040513d601f19601f820116820180604052508101906105b59190614961565b90508073ffffffffffffffffffffffffffffffffffffffff163373ffffffffffffffffffffffffffffffffffffffff1614806106375750600e5f3373ffffffffffffffffffffffffffffffffffffffff1673ffffffffffffffffffffffffffffffffffffffff1681526020019081526020015f205f9054906101000a900460ff165b610676576040517f08c379a000000000000000000000000000000000000000000000000000000000815260040161066d906149e6565b60405180910390fd5b5f84905060015481146106be576040517f08c379a00000000000000000000000000000000000000000000000000000000081526004016106b590614a4e565b60405180910390fd5b5f8185856040516020016106d493929190614a7b565b60405160208183030381529060405290507f000000000000000000000000000000000000000000000000000000000000000073ffffffffffffffffffffffffffffffffffffffff166381548319826040518263ffffffff1660e01b815260040161073e91906146e6565b5f604051808303815f875af1158015610759573d5f803e3d5ffd5b505050506040513d5f823e3d601f19601f820116820180604052508101906107819190614bca565b50505050505050565b5f805f9054906101000a900473ffffffffffffffffffffffffffffffffffffffff1673ffffffffffffffffffffffffffffffffffffffff16636352211e3073ffffffffffffffffffffffffffffffffffffffff166040518263ffffffff1660e01b81526004016107fa919061425b565b602060405180830381865afa158015610815573d5f803e3d5ffd5b505050506040513d601f19601f820116820180604052508101906108399190614961565b90508073ffffffffffffffffffffffffffffffffffffffff163373ffffffffffffffffffffffffffffffffffffffff1614806108bb5750600e5f3373ffffffffffffffffffffffffffffffffffffffff1673ffffffffffffffffffffffffffffffffffffffff1681526020019081526020015f205f9054906101000a900460ff165b6108fa576040517f08c379a00000000000000000000000000000000000000000000000000000000081526004016108f1906149e6565b60405180910390fd5b60025f9054906101000a900473ffffffffffffffffffffffffffffffffffffffff1673ffffffffffffffffffffffffffffffffffffffff168473ffffffffffffffffffffffffffffffffffffffff1603610989576040517f08c379a000000000000000000000000000000000000000000000000000000000815260040161098090614c5b565b60405180910390fd5b60045f9054906101000a900473ffffffffffffffffffffffffffffffffffffffff1673ffffffffffffffffffffffffffffffffffffffff168473ffffffffffffffffffffffffffffffffffffffff1603610a18576040517f08c379a0000000000000000000000000000000000000000000000000000000008152600401610a0f90614cc3565b60405180910390fd5b60035f9054906101000a900473ffffffffffffffffffffffffffffffffffffffff1673ffffffffffffffffffffffffffffffffffffffff168473ffffffffffffffffffffffffffffffffffffffff1603610aa7576040517f08c379a0000000000000000000000000000000000000000000000000000000008152600401610a9e90614d2b565b60405180910390fd5b5f8473ffffffffffffffffffffffffffffffffffffffff168484604051610acf929190614d85565b5f604051808303815f865af19150503d805f8114610b08576040519150601f19603f3d011682016040523d82523d5f602084013e610b0d565b606091505b5050905080610b51576040517f08c379a0000000000000000000000000000000000000000000000000000000008152600401610b4890614de7565b60405180910390fd5b8473ffffffffffffffffffffffffffffffffffffffff167fe9990fb3ad2e8c1c5009e7f9abc26f8f4a253c9d341bbe5c3e163ede68706ca88585604051610b99929190614e31565b60405180910390a27f000000000000000000000000000000000000000000000000000000000000000073ffffffffffffffffffffffffffffffffffffffff1663dfadc9f1600154306040518363ffffffff1660e01b8152600401610bfe929190614e53565b602060405180830381865afa158015610c19573d5f803e3d5ffd5b505050506040513d601f19601f82011682018060405250810190610c3d9190614e8e565b610c7c576040517f08c379a0000000000000000000000000000000000000000000000000000000008152600401610c7390614f03565b60405180910390fd5b5050505050565b7f000000000000000000000000000000000000000000000000000000000000000081565b5f805f9054906101000a900473ffffffffffffffffffffffffffffffffffffffff1673ffffffffffffffffffffffffffffffffffffffff16636352211e3073ffffffffffffffffffffffffffffffffffffffff166040518263ffffffff1660e01b8152600401610d17919061425b565b602060405180830381865afa158015610d32573d5f803e3d5ffd5b505050506040513d601f19601f82011682018060405250810190610d569190614961565b90508073ffffffffffffffffffffffffffffffffffffffff163373ffffffffffffffffffffffffffffffffffffffff161480610dd85750600e5f3373ffffffffffffffffffffffffffffffffffffffff1673ffffffffffffffffffffffffffffffffffffffff1681526020019081526020015f205f9054906101000a900460ff165b610e17576040517f08c379a0000000000000000000000000000000000000000000000000000000008152600401610e0e906149e6565b60405180910390fd5b5f8214610f24573073ffffffffffffffffffffffffffffffffffffffff167f000000000000000000000000000000000000000000000000000000000000000073ffffffffffffffffffffffffffffffffffffffff16636352211e846040518263ffffffff1660e01b8152600401610e8e919061425b565b602060405180830381865afa158015610ea9573d5f803e3d5ffd5b505050506040513d601f19601f82011682018060405250810190610ecd9190614961565b73ffffffffffffffffffffffffffffffffffffffff1614610f23576040517f08c379a0000000000000000000000000000000000000000000000000000000008152600401610f1a90614f6b565b60405180910390fd5b5b816007819055507f000000000000000000000000000000000000000000000000000000000000000073ffffffffffffffffffffffffffffffffffffffff1663dfadc9f1600154306040518363ffffffff1660e01b8152600401610f88929190614e53565b602060405180830381865afa158015610fa3573d5f803e3d5ffd5b505050506040513d601f19601f82011682018060405250810190610fc79190614e8e565b611006576040517f08c379a0000000000000000000000000000000000000000000000000000000008152600401610ffd90614fd3565b60405180910390fd5b5050565b60035f9054906101000a900473ffffffffffffffffffffffffffffffffffffffff1681565b60075481565b5f805f9054906101000a900473ffffffffffffffffffffffffffffffffffffffff1673ffffffffffffffffffffffffffffffffffffffff16636352211e3073ffffffffffffffffffffffffffffffffffffffff166040518263ffffffff1660e01b81526004016110a5919061425b565b602060405180830381865afa1580156110c0573d5f803e3d5ffd5b505050506040513d601f19601f820116820180604052508101906110e49190614961565b90508073ffffffffffffffffffffffffffffffffffffffff163373ffffffffffffffffffffffffffffffffffffffff1614806111665750600e5f3373ffffffffffffffffffffffffffffffffffffffff1673ffffffffffffffffffffffffffffffffffffffff1681526020019081526020015f205f9054906101000a900460ff165b6111a5576040517f08c379a000000000000000000000000000000000000000000000000000000000815260040161119c906149e6565b60405180910390fd5b5f6007819055507f000000000000000000000000000000000000000000000000000000000000000073ffffffffffffffffffffffffffffffffffffffff1663dfadc9f1600154306040518363ffffffff1660e01b8152600401611209929190614e53565b602060405180830381865afa158015611224573d5f803e3d5ffd5b505050506040513d601f19601f820116820180604052508101906112489190614e8e565b611287576040517f08c379a000000000000000000000000000000000000000000000000000000000815260040161127e9061503b565b60405180910390fd5b50565b5f805f9054906101000a900473ffffffffffffffffffffffffffffffffffffffff1673ffffffffffffffffffffffffffffffffffffffff16636352211e3073ffffffffffffffffffffffffffffffffffffffff166040518263ffffffff1660e01b81526004016112fa919061425b565b602060405180830381865afa158015611315573d5f803e3d5ffd5b505050506040513d601f19601f820116820180604052508101906113399190614961565b90508073ffffffffffffffffffffffffffffffffffffffff163373ffffffffffffffffffffffffffffffffffffffff1614806113bb5750600e5f3373ffffffffffffffffffffffffffffffffffffffff1673ffffffffffffffffffffffffffffffffffffffff1681526020019081526020015f205f9054906101000a900460ff165b6113fa576040517f08c379a00000000000000000000000000000000000000000000000000000000081526004016113f1906149e6565b60405180910390fd5b5f801b8261010001351461156b575f825f01608001602081019061141e9190615094565b90505f8173ffffffffffffffffffffffffffffffffffffffff1663ccf4b247855f018660a0016040518363ffffffff1660e01b81526004016114619291906152e7565b6040805180830381865afa15801561147b573d5f803e3d5ffd5b505050506040513d601f19601f8201168201806040525081019061149f9190615374565b90505f815f0151116114e6576040517f08c379a00000000000000000000000000000000000000000000000000000000081526004016114dd906153e9565b60405180910390fd5b3073ffffffffffffffffffffffffffffffffffffffff168460a0015f0160208101906115129190613ff4565b73ffffffffffffffffffffffffffffffffffffffff1614611568576040517f08c379a000000000000000000000000000000000000000000000000000000000815260040161155f90615451565b60405180910390fd5b50505b816008818161157a91906159b9565b9050507f000000000000000000000000000000000000000000000000000000000000000073ffffffffffffffffffffffffffffffffffffffff1663dfadc9f1600154306040518363ffffffff1660e01b81526004016115da929190614e53565b602060405180830381865afa1580156115f5573d5f803e3d5ffd5b505050506040513d601f19601f820116820180604052508101906116199190614e8e565b611658576040517f08c379a000000000000000000000000000000000000000000000000000000000815260040161164f90614fd3565b60405180910390fd5b5050565b60045f9054906101000a900473ffffffffffffffffffffffffffffffffffffffff1681565b3373ffffffffffffffffffffffffffffffffffffffff165f8054906101000a900473ffffffffffffffffffffffffffffffffffffffff1673ffffffffffffffffffffffffffffffffffffffff16636352211e3073ffffffffffffffffffffffffffffffffffffffff166040518263ffffffff1660e01b8152600401611706919061425b565b602060405180830381865afa158015611721573d5f803e3d5ffd5b505050506040513d601f19601f820116820180604052508101906117459190614961565b73ffffffffffffffffffffffffffffffffffffffff161461179b576040517f08c379a000000000000000000000000000000000000000000000000000000000815260040161179290615a11565b60405180910390fd5b80600e5f8473ffffffffffffffffffffffffffffffffffffffff1673ffffffffffffffffffffffffffffffffffffffff1681526020019081526020015f205f6101000a81548160ff0219169083151502179055508173ffffffffffffffffffffffffffffffffffffffff167f966c160e1c4dbc7df8d69af4ace01e9297c3cf016397b7914971f2fbfa32672d826040516118359190614039565b60405180910390a25050565b600f5f9054906101000a900460ff1615611890576040517f08c379a000000000000000000000000000000000000000000000000000000000815260040161188790615a79565b60405180910390fd5b81600181905550805f806101000a81548173ffffffffffffffffffffffffffffffffffffffff021916908373ffffffffffffffffffffffffffffffffffffffff1602179055505f7f000000000000000000000000000000000000000000000000000000000000000073ffffffffffffffffffffffffffffffffffffffff1663c8e5c84e846040518263ffffffff1660e01b815260040161193091906143b3565b61014060405180830381865afa15801561194c573d5f803e3d5ffd5b505050506040513d601f19601f820116820180604052508101906119709190615b8a565b9050805f015160025f6101000a81548173ffffffffffffffffffffffffffffffffffffffff021916908373ffffffffffffffffffffffffffffffffffffffff160217905550806020015160035f6101000a81548173ffffffffffffffffffffffffffffffffffffffff021916908373ffffffffffffffffffffffffffffffffffffffff16021790555080610120015160045f6101000a81548173ffffffffffffffffffffffffffffffffffffffff021916908373ffffffffffffffffffffffffffffffffffffffff160217905550806040015160055f6101000a81548173ffffffffffffffffffffffffffffffffffffffff021916908373ffffffffffffffffffffffffffffffffffffffff160217905550806060015160065f6101000a81548173ffffffffffffffffffffffffffffffffffffffff021916908373ffffffffffffffffffffffffffffffffffffffff1602179055506001600f5f6101000a81548160ff021916908315150217905550505050565b7f000000000000000000000000000000000000000000000000000000000000000081565b60015481565b7f000000000000000000000000000000000000000000000000000000000000000081565b6008805f016040518060a00160405290815f82015f9054906101000a900473ffffffffffffffffffffffffffffffffffffffff1673ffffffffffffffffffffffffffffffffffffffff1673ffffffffffffffffffffffffffffffffffffffff168152602001600182015f9054906101000a900473ffffffffffffffffffffffffffffffffffffffff1673ffffffffffffffffffffffffffffffffffffffff1673ffffffffffffffffffffffffffffffffffffffff1681526020016001820160149054906101000a900462ffffff1662ffffff1662ffffff1681526020016001820160179054906101000a900460020b60020b60020b8152602001600282015f9054906101000a900473ffffffffffffffffffffffffffffffffffffffff1673ffffffffffffffffffffffffffffffffffffffff1673ffffffffffffffffffffffffffffffffffffffff168152505090806003016040518060600160405290815f82015f9054906101000a900473ffffffffffffffffffffffffffffffffffffffff1673ffffffffffffffffffffffffffffffffffffffff1673ffffffffffffffffffffffffffffffffffffffff168152602001600182015f9054906101000a900473ffffffffffffffffffffffffffffffffffffffff1673ffffffffffffffffffffffffffffffffffffffff1673ffffffffffffffffffffffffffffffffffffffff1681526020016001820160149054906101000a900460ff161515151581525050908060050154905083565b60065f9054906101000a900473ffffffffffffffffffffffffffffffffffffffff1681565b5f60025f9054906101000a900473ffffffffffffffffffffffffffffffffffffffff1673ffffffffffffffffffffffffffffffffffffffff166370a08231306040518263ffffffff1660e01b8152600401611de091906141d5565b602060405180830381865afa158015611dfb573d5f803e3d5ffd5b505050506040513d601f19601f82011682018060405250810190611e1f9190615bb6565b81611e2a9190615c0e565b90505f60045f9054906101000a900473ffffffffffffffffffffffffffffffffffffffff1673ffffffffffffffffffffffffffffffffffffffff166370a08231306040518263ffffffff1660e01b8152600401611e8791906141d5565b602060405180830381865afa158015611ea2573d5f803e3d5ffd5b505050506040513d601f19601f82011682018060405250810190611ec69190615bb6565b90505f811115611fc9575f60065f9054906101000a900473ffffffffffffffffffffffffffffffffffffffff1673ffffffffffffffffffffffffffffffffffffffff1663f6a9662f60055f9054906101000a900473ffffffffffffffffffffffffffffffffffffffff1660025f9054906101000a900473ffffffffffffffffffffffffffffffffffffffff166040518363ffffffff1660e01b8152600401611f6f929190615c41565b602060405180830381865afa158015611f8a573d5f803e3d5ffd5b505050506040513d601f19601f82011682018060405250810190611fae9190615bb6565b9050611fba8282613063565b83611fc59190615c0e565b9250505b5f801b600860050154146122c9575f61222060086040518060600160405290815f82016040518060a00160405290815f82015f9054906101000a900473ffffffffffffffffffffffffffffffffffffffff1673ffffffffffffffffffffffffffffffffffffffff1673ffffffffffffffffffffffffffffffffffffffff168152602001600182015f9054906101000a900473ffffffffffffffffffffffffffffffffffffffff1673ffffffffffffffffffffffffffffffffffffffff1673ffffffffffffffffffffffffffffffffffffffff1681526020016001820160149054906101000a900462ffffff1662ffffff1662ffffff1681526020016001820160179054906101000a900460020b60020b60020b8152602001600282015f9054906101000a900473ffffffffffffffffffffffffffffffffffffffff1673ffffffffffffffffffffffffffffffffffffffff1673ffffffffffffffffffffffffffffffffffffffff16815250508152602001600382016040518060600160405290815f82015f9054906101000a900473ffffffffffffffffffffffffffffffffffffffff1673ffffffffffffffffffffffffffffffffffffffff1673ffffffffffffffffffffffffffffffffffffffff168152602001600182015f9054906101000a900473ffffffffffffffffffffffffffffffffffffffff1673ffffffffffffffffffffffffffffffffffffffff1673ffffffffffffffffffffffffffffffffffffffff1681526020016001820160149054906101000a900460ff161515151581525050815260200160058201548152505061307f565b90507f000000000000000000000000000000000000000000000000000000000000000073ffffffffffffffffffffffffffffffffffffffff1663b6576bdf826040518263ffffffff1660e01b815260040161227b91906146e6565b602060405180830381865afa158015612296573d5f803e3d5ffd5b505050506040513d601f19601f820116820180604052508101906122ba9190615bb6565b836122c59190615c0e565b9250505b5f60075414612387575f6122de600754613100565b90507f000000000000000000000000000000000000000000000000000000000000000073ffffffffffffffffffffffffffffffffffffffff1663b6576bdf826040518263ffffffff1660e01b815260040161233991906146e6565b602060405180830381865afa158015612354573d5f803e3d5ffd5b505050506040513d601f19601f820116820180604052508101906123789190615bb6565b836123839190615c0e565b9250505b5090565b612393613f71565b7f000000000000000000000000000000000000000000000000000000000000000073ffffffffffffffffffffffffffffffffffffffff163373ffffffffffffffffffffffffffffffffffffffff1614612421576040517f08c379a000000000000000000000000000000000000000000000000000000000815260040161241890615cb2565b60405180910390fd5b61242a83613191565b61243483836131ff565b905092915050565b60607f000000000000000000000000000000000000000000000000000000000000000073ffffffffffffffffffffffffffffffffffffffff163373ffffffffffffffffffffffffffffffffffffffff16146124cc576040517f08c379a00000000000000000000000000000000000000000000000000000000081526004016124c390615cb2565b60405180910390fd5b5f805f85858101906124de9190615cd0565b9250925092506001548314612528576040517f08c379a000000000000000000000000000000000000000000000000000000000815260040161251f90614a4e565b60405180910390fd5b7f000000000000000000000000000000000000000000000000000000000000000073ffffffffffffffffffffffffffffffffffffffff16631b89f3d48484846040518463ffffffff1660e01b815260040161258593929190614a7b565b5f604051808303815f87803b15801561259c575f80fd5b505af11580156125ae573d5f803e3d5ffd5b505050505f8213156126785760025f9054906101000a900473ffffffffffffffffffffffffffffffffffffffff1673ffffffffffffffffffffffffffffffffffffffff1663095ea7b37f0000000000000000000000000000000000000000000000000000000000000000846040518363ffffffff1660e01b8152600401612636929190615d20565b6020604051808303815f875af1158015612652573d5f803e3d5ffd5b505050506040513d601f19601f820116820180604052508101906126769190614e8e565b505b60405180602001604052805f815250935050505092915050565b60608282905067ffffffffffffffff8111156126b1576126b0614ab4565b5b6040519080825280602002602001820160405280156126e457816020015b60608152602001906001900390816126cf5790505b5090505f5b838390508110156127f0575f803073ffffffffffffffffffffffffffffffffffffffff168686858181106127205761271f615d47565b5b90506020028101906127329190615d80565b604051612740929190614d85565b5f60405180830381855af49150503d805f8114612778576040519150601f19603f3d011682016040523d82523d5f602084013e61277d565b606091505b5091509150816127c2576040517f08c379a00000000000000000000000000000000000000000000000000000000081526004016127b990615e2c565b60405180910390fd5b808484815181106127d6576127d5615d47565b5b6020026020010181905250505080806001019150506126e9565b5092915050565b60025f9054906101000a900473ffffffffffffffffffffffffffffffffffffffff1681565b60055f9054906101000a900473ffffffffffffffffffffffffffffffffffffffff1681565b5f8054906101000a900473ffffffffffffffffffffffffffffffffffffffff1681565b5f805f9054906101000a900473ffffffffffffffffffffffffffffffffffffffff1673ffffffffffffffffffffffffffffffffffffffff16636352211e3073ffffffffffffffffffffffffffffffffffffffff166040518263ffffffff1660e01b81526004016128d4919061425b565b602060405180830381865afa1580156128ef573d5f803e3d5ffd5b505050506040513d601f19601f820116820180604052508101906129139190614961565b90508073ffffffffffffffffffffffffffffffffffffffff163373ffffffffffffffffffffffffffffffffffffffff1614806129955750600e5f3373ffffffffffffffffffffffffffffffffffffffff1673ffffffffffffffffffffffffffffffffffffffff1681526020019081526020015f205f9054906101000a900460ff165b6129d4576040517f08c379a00000000000000000000000000000000000000000000000000000000081526004016129cb906149e6565b60405180910390fd5b5f73ffffffffffffffffffffffffffffffffffffffff168373ffffffffffffffffffffffffffffffffffffffff1614158015612a0f57505f82115b15612a91578273ffffffffffffffffffffffffffffffffffffffff1663095ea7b387846040518363ffffffff1660e01b8152600401612a4f929190615d20565b6020604051808303815f875af1158015612a6b573d5f803e3d5ffd5b505050506040513d601f19601f82011682018060405250810190612a8f9190614e8e565b505b5f8673ffffffffffffffffffffffffffffffffffffffff168686604051612ab9929190614d85565b5f604051808303815f865af19150503d805f8114612af2576040519150601f19603f3d011682016040523d82523d5f602084013e612af7565b606091505b5050905080612b3b576040517f08c379a0000000000000000000000000000000000000000000000000000000008152600401612b3290614de7565b60405180910390fd5b5f73ffffffffffffffffffffffffffffffffffffffff168473ffffffffffffffffffffffffffffffffffffffff1614158015612b7657505f83115b15612bf8578373ffffffffffffffffffffffffffffffffffffffff1663095ea7b3885f6040518363ffffffff1660e01b8152600401612bb6929190615e83565b6020604051808303815f875af1158015612bd2573d5f803e3d5ffd5b505050506040513d601f19601f82011682018060405250810190612bf69190614e8e565b505b7f000000000000000000000000000000000000000000000000000000000000000073ffffffffffffffffffffffffffffffffffffffff1663dfadc9f1600154306040518363ffffffff1660e01b8152600401612c55929190614e53565b602060405180830381865afa158015612c70573d5f803e3d5ffd5b505050506040513d601f19601f82011682018060405250810190612c949190614e8e565b612cd3576040517f08c379a0000000000000000000000000000000000000000000000000000000008152600401612cca90614f03565b60405180910390fd5b50505050505050565b5f805f9054906101000a900473ffffffffffffffffffffffffffffffffffffffff1673ffffffffffffffffffffffffffffffffffffffff16636352211e3073ffffffffffffffffffffffffffffffffffffffff166040518263ffffffff1660e01b8152600401612d4c919061425b565b602060405180830381865afa158015612d67573d5f803e3d5ffd5b505050506040513d601f19601f82011682018060405250810190612d8b9190614961565b90508073ffffffffffffffffffffffffffffffffffffffff163373ffffffffffffffffffffffffffffffffffffffff161480612e0d5750600e5f3373ffffffffffffffffffffffffffffffffffffffff1673ffffffffffffffffffffffffffffffffffffffff1681526020019081526020015f205f9054906101000a900460ff165b612e4c576040517f08c379a0000000000000000000000000000000000000000000000000000000008152600401612e43906149e6565b60405180910390fd5b60085f8082015f8082015f6101000a81549073ffffffffffffffffffffffffffffffffffffffff0219169055600182015f6101000a81549073ffffffffffffffffffffffffffffffffffffffff02191690556001820160146101000a81549062ffffff02191690556001820160176101000a81549062ffffff0219169055600282015f6101000a81549073ffffffffffffffffffffffffffffffffffffffff02191690555050600382015f8082015f6101000a81549073ffffffffffffffffffffffffffffffffffffffff0219169055600182015f6101000a81549073ffffffffffffffffffffffffffffffffffffffff02191690556001820160146101000a81549060ff02191690555050600582015f905550507f000000000000000000000000000000000000000000000000000000000000000073ffffffffffffffffffffffffffffffffffffffff1663dfadc9f1600154306040518363ffffffff1660e01b8152600401612fbe929190614e53565b602060405180830381865afa158015612fd9573d5f803e3d5ffd5b505050506040513d601f19601f82011682018060405250810190612ffd9190614e8e565b61303c576040517f08c379a00000000000000000000000000000000000000000000000000000000081526004016130339061503b565b60405180910390fd5b50565b7f000000000000000000000000000000000000000000000000000000000000000081565b5f6130778383670de0b6b3a76400006135b3565b905092915050565b6060815f015160800151825f0151836020015160065f9054906101000a900473ffffffffffffffffffffffffffffffffffffffff1660025f9054906101000a900473ffffffffffffffffffffffffffffffffffffffff166040516020016130ea959493929190615eaa565b6040516020818303038152906040529050919050565b6060817f000000000000000000000000000000000000000000000000000000000000000060065f9054906101000a900473ffffffffffffffffffffffffffffffffffffffff1660025f9054906101000a900473ffffffffffffffffffffffffffffffffffffffff1660405160200161317b9493929190615efe565b6040516020818303038152906040529050919050565b5f61319a6135f4565b90508181106131a957506131fc565b5f801b600860050154146131d7576131bf61383f565b6131c76135f4565b90508181106131d657506131fc565b5b5f600754146131fa575f81836131ed9190615f41565b90506131f8816139ff565b505b505b50565b613207613f71565b5f8390505f60045f9054906101000a900473ffffffffffffffffffffffffffffffffffffffff1673ffffffffffffffffffffffffffffffffffffffff166370a08231306040518263ffffffff1660e01b815260040161326691906141d5565b602060405180830381865afa158015613281573d5f803e3d5ffd5b505050506040513d601f19601f820116820180604052508101906132a59190615bb6565b90505f811115613471575f60065f9054906101000a900473ffffffffffffffffffffffffffffffffffffffff1673ffffffffffffffffffffffffffffffffffffffff166315e84af960045f9054906101000a900473ffffffffffffffffffffffffffffffffffffffff1660025f9054906101000a900473ffffffffffffffffffffffffffffffffffffffff166040518363ffffffff1660e01b815260040161334e929190615c41565b602060405180830381865afa158015613369573d5f803e3d5ffd5b505050506040513d601f19601f8201168201806040525081019061338d9190615bb6565b90505f6133a3828461306390919063ffffffff16565b90505f8482116133b357816133b5565b845b90505f849050858311156133d9576133d68483613e5590919063ffffffff16565b90505b6134457f00000000000000000000000000000000000000000000000000000000000000008260045f9054906101000a900473ffffffffffffffffffffffffffffffffffffffff1673ffffffffffffffffffffffffffffffffffffffff16613e719092919063ffffffff16565b80876020018181516134579190615c0e565b91508181525050818661346a9190615f41565b9550505050505b5f820361347f5750506135ad565b5f60025f9054906101000a900473ffffffffffffffffffffffffffffffffffffffff1673ffffffffffffffffffffffffffffffffffffffff166370a08231306040518263ffffffff1660e01b81526004016134da91906141d5565b602060405180830381865afa1580156134f5573d5f803e3d5ffd5b505050506040513d601f19601f820116820180604052508101906135199190615bb6565b90505f8111156135a9575f8382116135315781613533565b835b9050613581868260025f9054906101000a900473ffffffffffffffffffffffffffffffffffffffff1673ffffffffffffffffffffffffffffffffffffffff16613e719092919063ffffffff16565b80855f018181516135929190615c0e565b9150818152505080846135a59190615f41565b9350505b5050505b92915050565b5f827fffffffffffffffffffffffffffffffffffffffffffffffffffffffffffffffff04841183021582026135e6575f80fd5b818385020490509392505050565b5f8060025f9054906101000a900473ffffffffffffffffffffffffffffffffffffffff1673ffffffffffffffffffffffffffffffffffffffff166370a08231306040518263ffffffff1660e01b815260040161365091906141d5565b602060405180830381865afa15801561366b573d5f803e3d5ffd5b505050506040513d601f19601f8201168201806040525081019061368f9190615bb6565b90505f60045f9054906101000a900473ffffffffffffffffffffffffffffffffffffffff1673ffffffffffffffffffffffffffffffffffffffff166370a08231306040518263ffffffff1660e01b81526004016136ec91906141d5565b602060405180830381865afa158015613707573d5f803e3d5ffd5b505050506040513d601f19601f8201168201806040525081019061372b9190615bb6565b90505f811115613837575f60065f9054906101000a900473ffffffffffffffffffffffffffffffffffffffff1673ffffffffffffffffffffffffffffffffffffffff166315e84af960045f9054906101000a900473ffffffffffffffffffffffffffffffffffffffff1660025f9054906101000a900473ffffffffffffffffffffffffffffffffffffffff166040518363ffffffff1660e01b81526004016137d4929190615c41565b602060405180830381865afa1580156137ef573d5f803e3d5ffd5b505050506040513d601f19601f820116820180604052508101906138139190615bb6565b9050613828818361306390919063ffffffff16565b836138339190615c0e565b9250505b819250505090565b60085f016002015f9054906101000a900473ffffffffffffffffffffffffffffffffffffffff1673ffffffffffffffffffffffffffffffffffffffff166322a0f03160085f0160086003016040518363ffffffff1660e01b81526004016138a79291906161ca565b60408051808303815f875af11580156138c2573d5f803e3d5ffd5b505050506040513d601f19601f820116820180604052508101906138e691906161f2565b505060085f8082015f8082015f6101000a81549073ffffffffffffffffffffffffffffffffffffffff0219169055600182015f6101000a81549073ffffffffffffffffffffffffffffffffffffffff02191690556001820160146101000a81549062ffffff02191690556001820160176101000a81549062ffffff0219169055600282015f6101000a81549073ffffffffffffffffffffffffffffffffffffffff02191690555050600382015f8082015f6101000a81549073ffffffffffffffffffffffffffffffffffffffff0219169055600182015f6101000a81549073ffffffffffffffffffffffffffffffffffffffff02191690556001820160146101000a81549060ff02191690555050600582015f90555050565b5f613a0b600754613100565b90505f7f000000000000000000000000000000000000000000000000000000000000000073ffffffffffffffffffffffffffffffffffffffff1663b6576bdf836040518263ffffffff1660e01b8152600401613a6791906146e6565b602060405180830381865afa158015613a82573d5f803e3d5ffd5b505050506040513d601f19601f82011682018060405250810190613aa69190615bb6565b90505f8103613ab6575050613e52565b5f7f000000000000000000000000000000000000000000000000000000000000000073ffffffffffffffffffffffffffffffffffffffff16631efeed336007546040518263ffffffff1660e01b8152600401613b12919061425b565b602060405180830381865afa158015613b2d573d5f803e3d5ffd5b505050506040513d601f19601f82011682018060405250810190613b519190616275565b90505f81905084831115613b8957613b868584846fffffffffffffffffffffffffffffffff16613f289092919063ffffffff16565b90505b5f816fffffffffffffffffffffffffffffffff1603613bab5750505050613e52565b5f60016011604051602001613bc19291906162e0565b60405160208183030381529060405290505f600267ffffffffffffffff811115613bee57613bed614ab4565b5b604051908082528060200260200182016040528015613c2157816020015b6060815260200190600190039081613c0c5790505b509050600754835f8060405180602001604052805f815250604051602001613c4d95949392919061631a565b604051602081830303815290604052815f81518110613c6f57613c6e615d47565b5b60200260200101819052505f7f000000000000000000000000000000000000000000000000000000000000000073ffffffffffffffffffffffffffffffffffffffff16637ba03aad6007546040518263ffffffff1660e01b8152600401613cd6919061425b565b60c060405180830381865afa158015613cf1573d5f803e3d5ffd5b505050506040513d601f19601f82011682018060405250810190613d159190616475565b509050805f0151816020015130604051602001613d34939291906164c2565b60405160208183030381529060405282600181518110613d5757613d56615d47565b5b60200260200101819052507f000000000000000000000000000000000000000000000000000000000000000073ffffffffffffffffffffffffffffffffffffffff1663dd46508f8484604051602001613db19291906164f7565b604051602081830303815290604052603c42613dcd9190615c0e565b6040518363ffffffff1660e01b8152600401613dea92919061652c565b5f604051808303815f87803b158015613e01575f80fd5b505af1158015613e13573d5f803e3d5ffd5b50505050846fffffffffffffffffffffffffffffffff16846fffffffffffffffffffffffffffffffff1603613e4a575f6007819055505b505050505050505b50565b5f613e6983670de0b6b3a7640000846135b3565b905092915050565b5f6040517fa9059cbb00000000000000000000000000000000000000000000000000000000815273ffffffffffffffffffffffffffffffffffffffff8416600482015282602482015260205f6044835f895af1915081601f3d1160015f511416151615613ee1573d853b15171591505b5080613f22576040517f08c379a0000000000000000000000000000000000000000000000000000000008152600401613f19906165a4565b60405180910390fd5b50505050565b5f827fffffffffffffffffffffffffffffffffffffffffffffffffffffffffffffffff0484118302158202613f5b575f80fd5b81838502045f8385870206110190509392505050565b60405180604001604052805f81526020015f81525090565b5f604051905090565b5f80fd5b5f80fd5b5f73ffffffffffffffffffffffffffffffffffffffff82169050919050565b5f613fc382613f9a565b9050919050565b613fd381613fb9565b8114613fdd575f80fd5b50565b5f81359050613fee81613fca565b92915050565b5f6020828403121561400957614008613f92565b5b5f61401684828501613fe0565b91505092915050565b5f8115159050919050565b6140338161401f565b82525050565b5f60208201905061404c5f83018461402a565b92915050565b5f819050919050565b61406481614052565b811461406e575f80fd5b50565b5f8135905061407f8161405b565b92915050565b5f819050919050565b61409781614085565b81146140a1575f80fd5b50565b5f813590506140b28161408e565b92915050565b5f805f606084860312156140cf576140ce613f92565b5b5f6140dc86828701614071565b93505060206140ed868287016140a4565b92505060406140fe868287016140a4565b9150509250925092565b5f80fd5b5f80fd5b5f80fd5b5f8083601f84011261412957614128614108565b5b8235905067ffffffffffffffff8111156141465761414561410c565b5b60208301915083600182028301111561416257614161614110565b5b9250929050565b5f805f604084860312156141805761417f613f92565b5b5f61418d86828701613fe0565b935050602084013567ffffffffffffffff8111156141ae576141ad613f96565b5b6141ba86828701614114565b92509250509250925092565b6141cf81613fb9565b82525050565b5f6020820190506141e85f8301846141c6565b92915050565b5f819050919050565b614200816141ee565b811461420a575f80fd5b50565b5f8135905061421b816141f7565b92915050565b5f6020828403121561423657614235613f92565b5b5f6142438482850161420d565b91505092915050565b614255816141ee565b82525050565b5f60208201905061426e5f83018461424c565b92915050565b5f80fd5b5f610120828403121561428e5761428d614274565b5b81905092915050565b5f61012082840312156142ad576142ac613f92565b5b5f6142ba84828501614278565b91505092915050565b6142cc8161401f565b81146142d6575f80fd5b50565b5f813590506142e7816142c3565b92915050565b5f806040838503121561430357614302613f92565b5b5f61431085828601613fe0565b9250506020614321858286016142d9565b9150509250929050565b61433481614052565b811461433e575f80fd5b50565b5f8135905061434f8161432b565b92915050565b5f806040838503121561436b5761436a613f92565b5b5f61437885828601614341565b925050602061438985828601613fe0565b9150509250929050565b5f61439d82614052565b9050919050565b6143ad81614393565b82525050565b5f6020820190506143c65f8301846143a4565b92915050565b5f819050919050565b5f6143ef6143ea6143e584613f9a565b6143cc565b613f9a565b9050919050565b5f614400826143d5565b9050919050565b5f614411826143f6565b9050919050565b61442181614407565b82525050565b5f62ffffff82169050919050565b61443e81614427565b82525050565b5f8160020b9050919050565b61445981614444565b82525050565b5f614469826143f6565b9050919050565b6144798161445f565b82525050565b60a082015f8201516144935f850182614418565b5060208201516144a66020850182614418565b5060408201516144b96040850182614435565b5060608201516144cc6060850182614450565b5060808201516144df6080850182614470565b50505050565b6144ee81613fb9565b82525050565b6144fd81613f9a565b82525050565b61450c8161401f565b82525050565b606082015f8201516145265f8501826144e5565b50602082015161453960208501826144f4565b50604082015161454c6040850182614503565b50505050565b61455b81614052565b82525050565b5f610120820190506145755f83018661447f565b61458260a0830185614512565b614590610100830184614552565b949350505050565b5f80604083850312156145ae576145ad613f92565b5b5f6145bb8582860161420d565b92505060206145cc85828601613fe0565b9150509250929050565b6145df816141ee565b82525050565b604082015f8201516145f95f8501826145d6565b50602082015161460c60208501826145d6565b50505050565b5f6040820190506146255f8301846145e5565b92915050565b5f806020838503121561464157614640613f92565b5b5f83013567ffffffffffffffff81111561465e5761465d613f96565b5b61466a85828601614114565b92509250509250929050565b5f81519050919050565b5f82825260208201905092915050565b8281835e5f83830152505050565b5f601f19601f8301169050919050565b5f6146b882614676565b6146c28185614680565b93506146d2818560208601614690565b6146db8161469e565b840191505092915050565b5f6020820190508181035f8301526146fe81846146ae565b905092915050565b5f8083601f84011261471b5761471a614108565b5b8235905067ffffffffffffffff8111156147385761473761410c565b5b60208301915083602082028301111561475457614753614110565b5b9250929050565b5f806020838503121561477157614770613f92565b5b5f83013567ffffffffffffffff81111561478e5761478d613f96565b5b61479a85828601614706565b92509250509250929050565b5f81519050919050565b5f82825260208201905092915050565b5f819050602082019050919050565b5f82825260208201905092915050565b5f6147e982614676565b6147f381856147cf565b9350614803818560208601614690565b61480c8161469e565b840191505092915050565b5f61482283836147df565b905092915050565b5f602082019050919050565b5f614840826147a6565b61484a81856147b0565b93508360208202850161485c856147c0565b805f5b8581101561489757848403895281516148788582614817565b94506148838361482a565b925060208a0199505060018101905061485f565b50829750879550505050505092915050565b5f6020820190508181035f8301526148c18184614836565b905092915050565b5f805f805f608086880312156148e2576148e1613f92565b5b5f6148ef88828901613fe0565b955050602086013567ffffffffffffffff8111156149105761490f613f96565b5b61491c88828901614114565b9450945050604061492f88828901613fe0565b92505060606149408882890161420d565b9150509295509295909350565b5f8151905061495b81613fca565b92915050565b5f6020828403121561497657614975613f92565b5b5f6149838482850161494d565b91505092915050565b5f82825260208201905092915050565b7f4e6f7420417574686f72697a65640000000000000000000000000000000000005f82015250565b5f6149d0600e8361498c565b91506149db8261499c565b602082019050919050565b5f6020820190508181035f8301526149fd816149c4565b9050919050565b7f57726f6e67204d61726b657400000000000000000000000000000000000000005f82015250565b5f614a38600c8361498c565b9150614a4382614a04565b602082019050919050565b5f6020820190508181035f830152614a6581614a2c565b9050919050565b614a7581614085565b82525050565b5f606082019050614a8e5f8301866143a4565b614a9b6020830185614a6c565b614aa86040830184614a6c565b949350505050565b5f80fd5b7f4e487b71000000000000000000000000000000000000000000000000000000005f52604160045260245ffd5b614aea8261469e565b810181811067ffffffffffffffff82111715614b0957614b08614ab4565b5b80604052505050565b5f614b1b613f89565b9050614b278282614ae1565b919050565b5f67ffffffffffffffff821115614b4657614b45614ab4565b5b614b4f8261469e565b9050602081019050919050565b5f614b6e614b6984614b2c565b614b12565b905082815260208101848484011115614b8a57614b89614ab0565b5b614b95848285614690565b509392505050565b5f82601f830112614bb157614bb0614108565b5b8151614bc1848260208601614b5c565b91505092915050565b5f60208284031215614bdf57614bde613f92565b5b5f82015167ffffffffffffffff811115614bfc57614bfb613f96565b5b614c0884828501614b9d565b91505092915050565b7f43616e6e6f742063616c6c20636f6c6c61746572616c000000000000000000005f82015250565b5f614c4560168361498c565b9150614c5082614c11565b602082019050919050565b5f6020820190508181035f830152614c7281614c39565b9050919050565b7f43616e6e6f742063616c6c20706f736974696f6e20746f6b656e0000000000005f82015250565b5f614cad601a8361498c565b9150614cb882614c79565b602082019050919050565b5f6020820190508181035f830152614cda81614ca1565b9050919050565b7f43616e6e6f742063616c6c20756e6465726c79696e6720746f6b656e000000005f82015250565b5f614d15601c8361498c565b9150614d2082614ce1565b602082019050919050565b5f6020820190508181035f830152614d4281614d09565b9050919050565b5f81905092915050565b828183375f83830152505050565b5f614d6c8385614d49565b9350614d79838584614d53565b82840190509392505050565b5f614d91828486614d61565b91508190509392505050565b7f496e746572616374696f6e204661696c656400000000000000000000000000005f82015250565b5f614dd160128361498c565b9150614ddc82614d9d565b602082019050919050565b5f6020820190508181035f830152614dfe81614dc5565b9050919050565b5f614e108385614680565b9350614e1d838584614d53565b614e268361469e565b840190509392505050565b5f6020820190508181035f830152614e4a818486614e05565b90509392505050565b5f604082019050614e665f8301856143a4565b614e7360208301846141c6565b9392505050565b5f81519050614e88816142c3565b92915050565b5f60208284031215614ea357614ea2613f92565b5b5f614eb084828501614e7a565b91505092915050565b7f416374696f6e2063617573657320496e736f6c76656e637900000000000000005f82015250565b5f614eed60188361498c565b9150614ef882614eb9565b602082019050919050565b5f6020820190508181035f830152614f1a81614ee1565b9050919050565b7f4e6f7420706f736974696f6e206f776e657200000000000000000000000000005f82015250565b5f614f5560128361498c565b9150614f6082614f21565b602082019050919050565b5f6020820190508181035f830152614f8281614f49565b9050919050565b7f496e736f6c76656e7420616674657220757064617465000000000000000000005f82015250565b5f614fbd60168361498c565b9150614fc882614f89565b602082019050919050565b5f6020820190508181035f830152614fea81614fb1565b9050919050565b7f496e736f6c76656e7420616674657220636c65617200000000000000000000005f82015250565b5f61502560158361498c565b915061503082614ff1565b602082019050919050565b5f6020820190508181035f83015261505281615019565b9050919050565b5f61506382613fb9565b9050919050565b61507381615059565b811461507d575f80fd5b50565b5f8135905061508e8161506a565b92915050565b5f602082840312156150a9576150a8613f92565b5b5f6150b684828501615080565b91505092915050565b6150c881613fb9565b81146150d2575f80fd5b50565b5f813590506150e3816150bf565b92915050565b5f6150f760208401846150d5565b905092915050565b61510881614427565b8114615112575f80fd5b50565b5f81359050615123816150ff565b92915050565b5f6151376020840184615115565b905092915050565b61514881614444565b8114615152575f80fd5b50565b5f813590506151638161513f565b92915050565b5f6151776020840184615155565b905092915050565b5f61518d6020840184615080565b905092915050565b60a082016151a55f8301836150e9565b6151b15f850182614418565b506151bf60208301836150e9565b6151cc6020850182614418565b506151da6040830183615129565b6151e76040850182614435565b506151f56060830183615169565b6152026060850182614450565b50615210608083018361517f565b61521d6080850182614470565b50505050565b5f6152316020840184613fe0565b905092915050565b61524281613f9a565b811461524c575f80fd5b50565b5f8135905061525d81615239565b92915050565b5f615271602084018461524f565b905092915050565b5f61528760208401846142d9565b905092915050565b6060820161529f5f830183615223565b6152ab5f8501826144e5565b506152b96020830183615263565b6152c660208501826144f4565b506152d46040830183615279565b6152e16040850182614503565b50505050565b5f610100820190506152fb5f830185615195565b61530860a083018461528f565b9392505050565b5f80fd5b5f81519050615321816141f7565b92915050565b5f6040828403121561533c5761533b61530f565b5b6153466040614b12565b90505f61535584828501615313565b5f83015250602061536884828501615313565b60208301525092915050565b5f6040828403121561538957615388613f92565b5b5f61539684828501615327565b91505092915050565b7f4f72646572206e6f7420666f756e64206f7220656d70747900000000000000005f82015250565b5f6153d360188361498c565b91506153de8261539f565b602082019050919050565b5f6020820190508181035f830152615400816153c7565b9050919050565b7f4e6f74206f72646572206f776e657200000000000000000000000000000000005f82015250565b5f61543b600f8361498c565b915061544682615407565b602082019050919050565b5f6020820190508181035f8301526154688161542f565b9050919050565b5f813561547b816150bf565b80915050919050565b5f815f1b9050919050565b5f73ffffffffffffffffffffffffffffffffffffffff6154ae84615484565b9350801983169250808416831791505092915050565b5f819050919050565b6154d682614407565b6154e96154e2826154c4565b835461548f565b8255505050565b5f81356154fc816150ff565b80915050919050565b5f8160a01b9050919050565b5f76ffffff000000000000000000000000000000000000000061553384615505565b9350801983169250808416831791505092915050565b5f61556361555e61555984614427565b6143cc565b614427565b9050919050565b5f819050919050565b61557c82615549565b61558f6155888261556a565b8354615511565b8255505050565b5f81356155a28161513f565b80915050919050565b5f8160b81b9050919050565b5f79ffffff00000000000000000000000000000000000000000000006155dc846155ab565b9350801983169250808416831791505092915050565b5f61560c61560761560284614444565b6143cc565b614444565b9050919050565b5f819050919050565b615625826155f2565b61563861563182615613565b83546155b7565b8255505050565b5f813561564b8161506a565b80915050919050565b5f61565e826143d5565b9050919050565b5f61566f82615654565b9050919050565b5f819050919050565b61568882615665565b61569b61569482615676565b835461548f565b8255505050565b5f81015f8301806156b28161546f565b90506156be81846154cd565b5050506001810160208301806156d38161546f565b90506156df81846154cd565b5050506001810160408301806156f4816154f0565b90506157008184615573565b50505060018101606083018061571581615596565b9050615721818461561c565b5050506002810160808301806157368161563f565b9050615742818461567f565b5050505050565b61575382826156a2565b5050565b5f813561576381613fca565b80915050919050565b5f819050919050565b61577e82614407565b61579161578a8261576c565b835461548f565b8255505050565b5f81356157a481615239565b80915050919050565b5f819050919050565b6157bf826143d5565b6157d26157cb826157ad565b835461548f565b8255505050565b5f81356157e5816142c3565b80915050919050565b5f74ff000000000000000000000000000000000000000061580e84615505565b9350801983169250808416831791505092915050565b5f61582e8261401f565b9050919050565b5f819050919050565b61584782615824565b61585a61585382615835565b83546157ee565b8255505050565b5f81015f83018061587181615757565b905061587d8184615775565b50505060018101602083018061589281615798565b905061589e81846157b6565b5050506001810160408301806158b3816157d9565b90506158bf818461583e565b5050505050565b6158d08282615861565b5050565b5f81356158e08161405b565b80915050919050565b5f7fffffffffffffffffffffffffffffffffffffffffffffffffffffffffffffffff61591484615484565b9350801983169250808416831791505092915050565b5f815f1c9050919050565b5f61593f8261592a565b9050919050565b61594f82614393565b61596261595b82615935565b83546158e9565b8255505050565b5f81015f83018061597a8184615749565b5050506003810160a083018061599081846158c6565b505050600581016101008301806159a6816158d4565b90506159b28184615946565b5050505050565b6159c38282615969565b5050565b7f4e6f74204f776e657200000000000000000000000000000000000000000000005f82015250565b5f6159fb60098361498c565b9150615a06826159c7565b602082019050919050565b5f6020820190508181035f830152615a28816159ef565b9050919050565b7f496e697469616c697a65640000000000000000000000000000000000000000005f82015250565b5f615a63600b8361498c565b9150615a6e82615a2f565b602082019050919050565b5f6020820190508181035f830152615a9081615a57565b9050919050565b5f6101408284031215615aad57615aac61530f565b5b615ab8610140614b12565b90505f615ac78482850161494d565b5f830152506020615ada8482850161494d565b6020830152506040615aee8482850161494d565b6040830152506060615b028482850161494d565b6060830152506080615b168482850161494d565b60808301525060a0615b2a8482850161494d565b60a08301525060c0615b3e8482850161494d565b60c08301525060e0615b528482850161494d565b60e083015250610100615b678482850161494d565b61010083015250610120615b7d8482850161494d565b6101208301525092915050565b5f6101408284031215615ba057615b9f613f92565b5b5f615bad84828501615a97565b91505092915050565b5f60208284031215615bcb57615bca613f92565b5b5f615bd884828501615313565b91505092915050565b7f4e487b71000000000000000000000000000000000000000000000000000000005f52601160045260245ffd5b5f615c18826141ee565b9150615c23836141ee565b9250828201905080821115615c3b57615c3a615be1565b5b92915050565b5f604082019050615c545f8301856141c6565b615c6160208301846141c6565b9392505050565b7f4e6f7420436f72650000000000000000000000000000000000000000000000005f82015250565b5f615c9c60088361498c565b9150615ca782615c68565b602082019050919050565b5f6020820190508181035f830152615cc981615c90565b9050919050565b5f805f60608486031215615ce757615ce6613f92565b5b5f615cf486828701614341565b9350506020615d05868287016140a4565b9250506040615d16868287016140a4565b9150509250925092565b5f604082019050615d335f8301856141c6565b615d40602083018461424c565b9392505050565b7f4e487b71000000000000000000000000000000000000000000000000000000005f52603260045260245ffd5b5f80fd5b5f80fd5b5f80fd5b5f8083356001602003843603038112615d9c57615d9b615d74565b5b80840192508235915067ffffffffffffffff821115615dbe57615dbd615d78565b5b602083019250600182023603831315615dda57615dd9615d7c565b5b509250929050565b7f4d756c746963616c6c206661696c6564000000000000000000000000000000005f82015250565b5f615e1660108361498c565b9150615e2182615de2565b602082019050919050565b5f6020820190508181035f830152615e4381615e0a565b9050919050565b5f819050919050565b5f615e6d615e68615e6384615e4a565b6143cc565b6141ee565b9050919050565b615e7d81615e53565b82525050565b5f604082019050615e965f8301856141c6565b615ea36020830184615e74565b9392505050565b5f61016082019050615ebe5f8301886141c6565b615ecb602083018761447f565b615ed860c0830186614512565b615ee66101208301856141c6565b615ef46101408301846141c6565b9695505050505050565b5f608082019050615f115f83018761424c565b615f1e60208301866141c6565b615f2b60408301856141c6565b615f3860608301846141c6565b95945050505050565b5f615f4b826141ee565b9150615f56836141ee565b9250828203905081811115615f6e57615f6d615be1565b5b92915050565b5f73ffffffffffffffffffffffffffffffffffffffff82169050919050565b5f615fa5615fa08361592a565b615f74565b9050919050565b5f8160a01c9050919050565b5f62ffffff82169050919050565b5f615fd8615fd383615fac565b615fb8565b9050919050565b5f8160b81c9050919050565b5f8160020b9050919050565b5f61600961600483615fdf565b615feb565b9050919050565b5f73ffffffffffffffffffffffffffffffffffffffff82169050919050565b5f61604161603c8361592a565b616010565b9050919050565b60a082015f80830154905061605c81615f93565b6160685f860182614418565b506001830154905061607981615f93565b6160866020860182614418565b5061609081615fc6565b61609d6040860182614435565b506160a781615ff7565b6160b46060860182614450565b50600283015490506160c58161602f565b6160d26080860182614470565b5050505050565b5f73ffffffffffffffffffffffffffffffffffffffff82169050919050565b5f61610a6161058361592a565b6160d9565b9050919050565b5f73ffffffffffffffffffffffffffffffffffffffff82169050919050565b5f61614261613d8361592a565b616111565b9050919050565b5f60ff82169050919050565b5f61616761616283615fac565b616149565b9050919050565b606082015f808301549050616182816160f8565b61618e5f8601826144e5565b506001830154905061619f81616130565b6161ac60208601826144f4565b506161b681616155565b6161c36040860182614503565b5050505050565b5f610100820190506161de5f830185616048565b6161eb60a083018461616e565b9392505050565b5f806040838503121561620857616207613f92565b5b5f61621585828601615313565b925050602061622685828601615313565b9150509250929050565b5f6fffffffffffffffffffffffffffffffff82169050919050565b61625481616230565b811461625e575f80fd5b50565b5f8151905061626f8161624b565b92915050565b5f6020828403121561628a57616289613f92565b5b5f61629784828501616261565b91505092915050565b5f60ff82169050919050565b5f8160f81b9050919050565b5f6162c2826162ac565b9050919050565b6162da6162d5826162a0565b6162b8565b82525050565b5f6162eb82856162c9565b6001820191506162fb82846162c9565b6001820191508190509392505050565b61631481616230565b82525050565b5f60a08201905061632d5f83018861424c565b61633a602083018761630b565b616347604083018661630b565b616354606083018561630b565b818103608083015261636681846146ae565b90509695505050505050565b5f81519050616380816150bf565b92915050565b5f81519050616394816150ff565b92915050565b5f815190506163a88161513f565b92915050565b5f815190506163bc8161506a565b92915050565b5f60a082840312156163d7576163d661530f565b5b6163e160a0614b12565b90505f6163f084828501616372565b5f83015250602061640384828501616372565b602083015250604061641784828501616386565b604083015250606061642b8482850161639a565b606083015250608061643f848285016163ae565b60808301525092915050565b616454816141ee565b811461645e575f80fd5b50565b5f8151905061646f8161644b565b92915050565b5f8060c0838503121561648b5761648a613f92565b5b5f616498858286016163c2565b92505060a06164a985828601616461565b9150509250929050565b6164bc81614407565b82525050565b5f6060820190506164d55f8301866164b3565b6164e260208301856164b3565b6164ef60408301846141c6565b949350505050565b5f6040820190508181035f83015261650f81856146ae565b905081810360208301526165238184614836565b90509392505050565b5f6040820190508181035f83015261654481856146ae565b9050616553602083018461424c565b9392505050565b7f5452414e534645525f4641494c454400000000000000000000000000000000005f82015250565b5f61658e600f8361498c565b91506165998261655a565b602082019050919050565b5f6020820190508181035f8301526165bb81616582565b905091905056fea2646970667358221220e4731c13844cc614c575440a4ba474474d5bbb57d79da24ff70ca776c374ebb664736f6c634300081a0033","linkReferences":{}},"methodIdentifiers":{"CORE()":"6b6c0774","POSM()":"fbe8cc42","TWAMM_MODULE()":"783b3e38","V4_MODULE()":"1d56dc6c","activeTokenId()":"25cea0a4","activeTwammOrder()":"9352290e","clearActiveTwammOrder()":"f79b4ae9","clearActiveV4Position()":"35a1af6d","collateralToken()":"b2016bd4","execute(address,bytes)":"1cff79cd","executeWithApproval(address,bytes,address,uint256)":"ca05975e","factory()":"c45a0155","getNetAccountValue()":"9cf436ee","initialize(bytes32,address)":"6910e334","lockAcquired(bytes)":"ab6291fe","marketId()":"6ed71ede","modifyPosition(bytes32,int256,int256)":"1b89f3d4","multicall(bytes[])":"ac9650d8","operators(address)":"13e7c9d8","positionToken()":"5037b7e9","rateOracle()":"98f4b1b2","seize(uint256,address)":"a7dab972","setActiveTwammOrder(((address,address,uint24,int24,address),(address,uint160,bool),bytes32))":"433fbad0","setActiveV4Position(uint256)":"1fbaa88f","setOperator(address,bool)":"558a7297","underlyingPool()":"bd58d042","underlyingToken()":"2495a599"},"id":31}